:0300000002181EC5
:0C181E00787FE4F6D8FD7581390218656A
:0723A4000000007F05DFFED1
:0123AB00220F
:08239B007F217E16DEFEDFFC4F
:0123A3002217
:10236200AD07AC06ED1DAE0470011C4E60051223D4
:04237200A480F12230
:10237600AD07AC06ED1DAE0470011C4E60051223C0
:042386009B80F12225
:0A2238001218AAAF03122394C20487
:10224200A20492C6A20492C1A20492A2A20492C3C0
:10225200A20492A1A20492C4A20492A0A20492A4F3
:012262002259
:10122400EF0470030212BB14B4100040030212DC7A
:1012340090123BF828287302126B02127002127586
:1012440002127A02127F02128402128902128E02A0
:10125400129302129802129D0212A20212A7021203
:10126400AC0212B10212B6C2A6D2C722C2C7D29130
:1012740022C291D29222C292D29022C290D28622CB
:10128400C286D29322C293D28722C287D28522C237
:1012940085D28222C282D28122C281D28322C28397
:1012A400D28022C280D2A722C2A7D28422C284D2F0
:1012B400C522C2C5D2A622D2C7D291D292D290D28E
:1012C40086D293D287D285D282D281D283D280D25F
:1012D400A7D284D2C5D2A622C2C7C291C292C2905A
:1012E400C286C293C287C285C282C281C283C280BF
:0912F400C2A7C284C2C5C2A62231
:101FD700AE077F58121224D204122242AF05121202
:101FE70024EEB408005036901FF5F8282873022015
:101FF7000D02201002201302201602201902201CB5
:1020070002201F022022C2C622C2C122C2A222C2AD
:0E201700C322C2A122C2C422C2A022C2A4229D
:0A238A00900144E0FFC374649FFF5C
:07239400AE071FEE70FA22F4
:0E103A00900141EBF0A3EAF0A3E9F0A3EDF082
:10104800D2A3D2A5D2C2D204122242E4A3F09001C4
:1010580045E0FFC394104003021130121224E490BB
:101068000146F0900141E0FBA3E0FAA3E0F990010A
:1010780045E0F582758300120195FF900146E0FE78
:10108800900016935F24FFB39203EEB408005076E5
:1010980090109FF82828730210B70210C30210CED0
:1010A8000210D90210E40210EF0210FA021105D260
:1010B800A412238AA20392C602110ED2C612238A50
:1010C800A20392C18040D2C112238AA20392A280B5
:1010D80035D2A212238AA20392C3802AD2C3122332
:1010E8008AA20392A1801FD2A112238AA20392C4CA
:1010F8008014D2C412238AA20392A08009D2A0121B
:10110800238AA20392A4900144E0FF122394900141
:1011180046E004F0E0C39408500302106BD2A49098
:081128000145E004F00210563D
:01113000229C
:1018AA00EFB40A0040030219349018BAF8282873D2
:1018BA000218D80218E50218E70218F20218FD0207
:1018CA00190302190B02191502191C021928D2C18F
:1018DA00D2A4D2A1D2A0D2C4D2A2228030D2C1D262
:1018EA00A4D2A0D2C4D2C322D2C1D2A4D2A1D2A09D
:1018FA00D2C322D2A4D2A1802DD2C1D2A1D2A08099
:10190A0025D2C1D2A1D2A0D2C4801BD2C1D2A4D224
:10191A00A122D2C1D2A4D2A1D2A0D2C48008D2C15B
:0B192A00D2A4D2A1D2A0D2A2D2C3222C
:101A3D00900138EEF0A3EFF0AB057F58121224C2DF
:101A4D0004122242C374649BFF122394C2A390011B
:101A5D0038E0FEA3E0FF7C007D64120208122238FC
:101A6D00C374649BFF122394D2A3C2A5900138E0E6
:101A7D00FEA3E0FF7C007D0A1202087C007D0A12A5
:101A8D000208AF05122238C374649BFF122394D24F
:101A9D00A5C2C2900138E0FEA3E0FF7C007D0A12D2
:0F1AAD000208AF051218AAAF03122394D2C22267
:10152600080C08000091B3B7000000000099BFBF87
:10153600604040000099BFBF00000000000000F9B5
:101546000000000000002E000000000000003C002B
:101556002000002020203000202020202020000015
:101566008F850A81A170A1D100858F04ABF120D1AE
:10157600810081852EF5AB5000818100A1F120D13B
:10158600BBFB00000000040EF6BBFB001000103889
:10159600F6BBEB0000001038CFF6BBEB00001038AE
:1015A60042243C2400192AC88BC82A19000042622A
:1015B600524A464200003C20203C202001020408FA
:0415C6001020408031
:091E7F0042017B000141017D01DB
:102073009015A8E493FFF52AA3E493F52BF5348F89
:1020830035E4F536F5379015A693F538A3E493F5C3
:10209300397F02EF2401FDE433FCE52775F00A8460
:1020A300FBD3ED9B7480F86C9840047E0080027E25
:0C20B30018742A2FF8A6060FEFB40AD705
:0120BF0022FE
:101935007F0FEFFD3395E0FCC3740F9DFDE49CFC28
:1019450074AA2DF58274153CF583E493FE742A2F51
:10195500F8A6061FEFB407DA30002E7F07D3EF6431
:1019650080947F4052EFFD3395E0FCC374079DFDE5
:10197500E49CFC74B22DF58274153CF583E493FE6A
:10198500742A2FF8A6061F80D47F07D3EF648094AE
:101995007F4024EFFD3395E0FCC374079DFDE49C77
:1019A500FC74BA2DF58274153CF583E493FE742A14
:0719B5002FF8A6061F80D4E5
:0119BC002208
:100D0C00E490012CF0E490012BF090012D7402F092
:100D1C0090012CE0FF242AF8E6FE90012BE0FDFB6D
:100D2C003395E0FA74C22BF58274153AF583E4938B
:100D3C004EF6C3740F9F242AF8E6FFED3395E0FCC2
:100D4C00C374079DFDE49CFC74C22DF58274153CA4
:100D5C00F583E4934FF690012DE0FF14F0EF600D56
:100D6C007B007A00792AAD2712103A80E990012B8A
:100D7C00E004F0E0C364809488408F90012CE00480
:100D8C00F0E0C3648094885003020D1190012C7420
:100D9C0007F090012B7407F090012D7402F0900174
:100DAC002CE0FF242AF8E6FE90012BE0FDFB3395A6
:100DBC00E0FA74C22BF58274153AF583E493F45E71
:100DCC00F6C3740F9F242AF8E6FFED3395E0FCC3BD
:100DDC0074079DFDE49CFC74C22DF58274153CF5E2
:100DEC0083E493F45FF690012DE0FF14F0EF600DB7
:100DFC007B007A00792AAD2712103A80E990012BFA
:100E0C00E014F0E0C364809480508D90012CE014C9
:0C0E1C00F0E0C3648094804003020D9E4F
:010E280022A7
:1012FD00900142EFF0A3ECF0A3EDF0A3EBF0A3EA25
:04130D00F0A3E9F070
:10131100E4A3F0900143E0FCA3E0FDAE28AF291265
:101321000208D3EF9403EE94004005E4F528F52973
:10133100900148E0C39408504E900143E0FCA3E0C3
:10134100FDAE28AF29120208EF7803C333CE33CEA6
:10135100D8F9FF900145E0FBA3E0FAA3E02FF9EAF9
:101361003EFAA3E0FFFDC374079DFDE49400FCE990
:101371002DF9EA3CFA12017CFE742A2FF8A6069098
:101381000148E004F080A9E4900148F0900148E0B0
:10139100FF900142E075F005A4241EF582E43400BB
:1013A100F583E5822FF582E43583F583E49325E027
:1013B10025E0FEC3740E9F242AF8A606900148E09A
:0D13C10004F0E0B405C6E4F539F533F5326B
:0113CE0022FC
:101EDA00900141EFF024FE601D1460271460311454
:101EEA0060401460402405703F900141E0FF7BFF91
:101EFA007A1579268025900141E0FF7BFF7A1579D2
:101F0A00468018900141E0FF7BFF7A157966800BC5
:101F1A00900141E0FF7BFF7A1579867D587C0202A9
:091F2A0012FD0220731219352288
:080AA20090012CEFF0A3EDF030
:100AAA00E4A3F090012EE0FF242AF8E6FE74312F29
:100ABA00F582E43401F583EEF090012EE004F0E0D3
:100ACA00B410E090012CE0FF121EDAE490012FF03E
:100ADA00E490012EF090012EE0FFC394104003022F
:100AEA000B9B90012CE0FD90017CE09D7480F890B6
:100AFA00017BE06480984047742A2FF8E630E008CA
:100B0A009001307480F08005E4900130F090012E5D
:100B1A00E0FF2431F582E43401F583E0C313FE904B
:100B2A000130E04EFE74312FF582E43401F583EE94
:100B3A00F090012EE0242AF8C000E6C31380469004
:100B4A00012EE0FF242AF8E630E70890013074010C
:100B5A00F08005E4900130F090012EE0FE2431F59A
:100B6A0082E43401F583E025E0FD900130E04DFD9B
:100B7A0074312EF582E43401F583EDF0742A2FF8EE
:100B8A00C000E625E0D000F690012EE004F0020A4B
:100B9A00DFE4F528F52990012DE0FFC3E5299FE55B
:100BAA00289400500D7B017A017931AD2712103A51
:100BBA0080E490012FE004F0E0C394085003020A95
:100BCA00DA90012CE0FF90017BE4F0A3EFF07522AC
:010BDA00FF1B
:010BDB0022F7
:1015CA0090012B74FFF07F9612234CEF14604414A1
:1015DA00601D14605314602E2404706B90017DE02A
:1015EA0064057063E527C39464505C740A801190A3
:1015FA00017DE064057050E527C3940A404974F6FA
:10160A002527F527804190017DE0D394014038E0F9
:10161A0014800B90017DE0C39406502BE004F0E0A7
:10162A00FF7D1C120AA2801F90017DE0B4060DB254
:10163A00007BFF7A0B79DC122333800B90017DE06B
:10164A00FFC3940550012290017DE0FF121EDA7B50
:0D165A00007A00792AAD2712103A0215D04F
:1000160001020408102040800705050507020602B4
:10002600020707010704070701070107050507017E
:100036000107040701070704070507070101010176
:0A0046000705070507070507010776
:101E88000122FF01210002280000C10102230000F5
:101E980002250000C182C180012750102A000000DD
:0D1EA800000000000000000000000000002D
:1022F6007594FFE4F5937592FFF5917596FFF59544
:0F230600F5B2F5B175B4FFF5B375CAFFF5C9228D
:10231500438E80E4F589758A40758CA2D28CD2A94A
:0E232500D288D2A8D28AD2AA438F70D2AF2219
:0B22630090012EEBF0A3EAF0A3E9F0DD
:10226E00E4FF90012EE0FBA3E0FAA3E0F98F827564
:0B227E008300E41201D40FEFB410E75E
:012289002232
:040F3D00AB07AA064E
:100F41007C037DE812020890012BEFF07C037DE821
:100F5100AF03AE021202087E007F64CFCDCFCECCAC
:100F6100CE120208A3EFF07C007D64AF03AE021243
:100F710002087E007F0ACFCDCFCECCCE120208A3CD
:100F8100EFF0AE02AF037C007D0A120208AE057BD2
:100F9100007A00792A122263E4FF90012DE075F0B6
:100FA10005A4241EF582E43400F583E5822FF58241
:100FB100E43583F583E493C454F0FDEE75F005A4A4
:100FC100241EF582E43400F583E5822FF582E435B1
:100FD10083F583E4934DFDC374089F242AF8A60585
:100FE1000FEFB405B5E4FF90012CE075F005A424E2
:100FF1001EF582E43400F583E5822FF582E4358322
:10100100F583E49325E0FE90012BE075F005A4241F
:101011001EF582E43400F583E5822FF582E4358301
:10102100F583E493C43354E04EFEC3740E9F242A27
:08103100F8A6060FEFB405AFAD
:011039002294
:101667001222F612228A122315D205900149740E0E
:10167700F0A37405F012210DAF8A7E001220FE7FC1
:10168700647E001223767BFF7A0B79FC12233312D8
:101697000D0CE4F528F5297522FF1215CAEF24FE73
:1016A700600F14601114601324037012120E298046
:1016B7000D1207AE80081203798003121DBC7BFF51
:1016C7007A0C790A122333120D0CAF26AE25120FAE
:1016D7003D7F2C7E011223767522FFE52260B37BC6
:1016E700007A00792AAD2712103AAD27AF26AE252A
:0516F700121A3D80E61F
:03000B000213CF0E
:1013CF00C0E0C0F0C083C082C0D075D008C3E5298B
:1013DF0094FEE52894FF50080529E5297002052899
:1013EF00300105D52102C201E58E30E461E511150A
:1013FF0011AE10700215104E7054538EEFD2CD9067
:10140F000127E075F002A4FF900128E0FBA3E0FAAA
:10141F00A3E02FF9EA35F0FA900001120195FF6071
:10142F002DA2009205900128A3E0FAA3E0F9900104
:10143F0027E075F002A4F58285F0831201959001E3
:10144F0049F0A3EFF012210D900127E004F020B234
:10145F00047F0180027F0020B6047E0180027E009F
:10146F00EE5F600375C760D0D0D082D083D0F0D04C
:02147F00E03259
:0300630002005048
:03005000B2CD32FC
:10234C007EFFE522F4600C200106D201AE228F2123
:05235C007522FFAF0631
:012361002259
:03000300020006F2
:04000600752200322D
:0300130002000EDA
:04000E007522013224
:0300530002005652
:0400560075220232DB
:03005B0002005E42
:04005E0075220332D2
:0300830002007FF9
:04007F0075220432B0
:10006600000000000000000000000000502070208A
:090076000A040E048181810000DE
:061EB50041017E01C1069F
:1016FC007F1E12234C900138EFF020B72E7523007B
:10170C0075241CE511451070047F0180027F00A236
:10171C0006E4334F6011A20092059001497406F063
:10172C00A374FFF012210DC2068041AE25AF267CBA
:10173C00007D0A120208C374C89FF524E49EF523A9
:10174C00E511451070047F0180027F002006047EA5
:10175C000180027E00EF4E6011A2009205900149BB
:10176C007401F0A374FFF012210DD206900138E041
:10177C00FFB4040690017E7401F0EFB401069001F1
:04178C007E7402F075
:011790002236
:10037900782B7C017D017BFF7A0079667E007F08FE
:10038900120156E4900133F0A3F0A3F0D202F52351
:100399007524C8F525F526900137F0900137E0FF5F
:1003A900C39404502BE0FE75F005A4FDEE25E0246E
:1003B9002CF582E43401F583EDF0EF25E0242BF5EB
:1003C90082E43401F583E4F0900137E004F080CB56
:1003D9002002030205B6E4900136F0900136E0FBF5
:1003E900C3941040030204F4E0FF242AF8E4F690D1
:1003F9000135E0FDEF2DFFE433FE7C007D0512029F
:100409005D747A2DF58274003CF583E493FF742AB8
:100419002BF8A607E4900137F0900137E0FFC39469
:100429000440030204B1EF25E0242CF582E43401F1
:10043900F583E0FF900136E0C39FFFE4D39F505F4F
:10044900EFC394045059E0FF242AF8C000E6FDA345
:10045900E0F925E0242CF582E43401F583E0FB334F
:1004690095E0FAC3EF9BFBE49AFAE925E0242BF522
:1004790082E43401F583E0FF3395E0FEEF7802C3AF
:1004890033CE33CED8F9246EF58274003EF583E578
:10049900822BF582E5833AF583E4934DD000F690FB
:1004A9000137E004F0020422900136E0C3940450BD
:1004B90031E0FF90017EE025E025E0246EF582E43D
:1004C9003400F583E5822FF582E43583F583E493DF
:1004D900FE742A2FF8E6FFEE5F6004C2028003EE85
:1004E9004FF6900136E004F00203E4D3E5299524A0
:1004F900E5289523500302059C900135E004F0E0BE
:10050900B40502E4F0E4900137F0900137E0FFC34D
:100519009404507AEF25E0242CF582E43401F58324
:10052900E014F0EF25E0242CF582E43401F583E0B2
:1005390064FC7051900137E025E0242CF582E43405
:1005490001F583740FF0900134E0D394004007E47F
:10055900900133F0800F1220C07C007D0312025DF0
:10056900900133EDF0900133E0FFA3F0900137E003
:1005790025E0242BF582E43401F583EFF00526E527
:100589002670020525900137E004F0020513E4F511
:1005990028F5291216FC7B007A00792AAD2712105A
:1005A9003AAD27AF26AE25121A3D0203D9538EEF75
:0105B900221F
:081EBB004101620041017601C2
:101ABC00900162E0FFD3940F40047401F022746330
:101ACC002FF582E43401F583E0FF900175E090007E
:101ADC001693FE5F6022900162E02463F582E43489
:101AEC0001F583EEF4FEEF5EF09001627401F005F7
:101AFC0026E5267030052522900162E004F0A20054
:101B0C009205E0900149F0A37401F012210D9001AF
:101B1C0075E0FF900162E0FD121FD77F2C7E011251
:061B2C002362121ABC2224
:1021DB00E4FF74642FF582E43401F583E0FE74634D
:1021EB002FF582E43401F583EEF00FEFB40FE31219
:0E21FB0020C07C017D0012025D900172EDF0AB
:0122090022B2
:102153007F9612234CEF14601524FE601F14701E2B
:10216300900175E0C394075015E004F080109001CE
:1021730075E0D394004007E014F080028012AE288B
:10218300AF297C007D14120208ED4C700620B703C2
:03219300121ABC61
:012196002226
:10202500D2029001757403F0E4F525F5269001625E
:10203500F07523037524E8900175E09000169390E0
:102045000174F0E0FF25E0FEEF4EFFE0FEC3134F05
:10205500900173F07F10900163E4F0A3DFFC122080
:0D206500C07C017D0012025D900172EDF063
:01207200224B
:10220A00E4FF74632FF582E43401F583E0FE742A57
:10221A002FF8A6060FEFB410E9900173E0422AA343
:0E222A00E0422B7B007A00792AAD2702103AA1
:101DBC0012202530025D122153900175E09000161F
:101DCC0093900174F0E0FF25E0FEEF4EFFE0C313AB
:101DDC004F900173F0C3E5249526FFE5239525FE6E
:101DEC00D3E5299FE5289E401CE4F528F52912210E
:101DFC00DB900174E0FF900164E05FFF900163E011
:101E0C004F6002C20212220AAD27AF26AE25121A6B
:041E1C003D80A02243
:101B32001220C07C007D0812025D900105EDF012BA
:101B420020C07C007D1012025D900106EDF0900134
:101B52002C7401F0900100E0FF3395E0FE90012C1F
:101B6200E0FDC39FEE6480F8748098503474002DB9
:101B7200F582E43400F583E0FF900105E0B5071932
:101B820090012CE02480F582E43400F583E0FF909C
:101B92000106E0B50703121B3290012CE004F0802D
:011BA200B38F
:011BA300221F
:101E2000E4FF74002FF582E43400F58374FFF0744E
:101E3000802FF582E43400F58374FFF00FEFB48057
:101E4000E19001047401F09001007403F0E4A3F048
:101E50009000007404F090008004F090000114F0F1
:101E6000900081F0900002F090008214F075230140
:0F1E7000752468E4F528F529F525F526021B32BF
:101CEC00900100E014FFEFD394004033747F2FF584
:101CFC0082E43400F583E0FE74802FF582E4340036
:101D0C00F583EEF074FF2FF582E434FFF583E0FEEB
:101D1C0074002FF582E43400F583EEF01F80C79039
:101D2C000101E014600F1460111460152403701786
:101D3C00900080800F9000808003900000E014F0F1
:071D4C0022900000E004F00A
:011D5300226D
:1017910090012C7410F090012CE0FF14F0EF600820
:1017A100E0242AF8E4F680EEE490012CF0900100A8
:1017B100E0FF3395E0FE90012CE0C39FEE6480F8DA
:1017C1007480985036E0FF2480F582E43400F5837C
:1017D100E0242AF8C000E6FE74002FF582E434000C
:1017E100F583E0FF7480A807088002C313D8FC4E7C
:1017F100D000F690012CE004F080B27B007A0079F1
:101801002AAD2712103A900105E0FFC374079FFF2C
:0D181100A3E0FD121FD7AF277E0002236267
:1007AE00121E207BFF7A0C796A122333900104E02B
:0507BE00700302092098
:1007C300E52214604814601D24FE602F2404704D3C
:1007D300900101E0FF64026005EF6403703FE49061
:1007E3000101F08038900101E0FF64026005EF64CD
:1007F30003702A9001017401F08022900101E0FF4F
:100803006003B401189001017402F080109001019B
:10081300E0FF6003B401069001017403F020B70800
:100823007523007524648006752301752468752279
:10083300FFD3E5299524E52895234008E4F528F519
:1008430029121CEC900000E0FF900105E0B507259C
:10085300900080E0FF900106E0B50719A200920521
:100863009001497404F0A304F012210D900100E0FB
:1008730004F0121B32900000E0FFD3648094875091
:100883001CC3EF648094804014900080E0FFD36425
:1008930080948F5008C3EF648094805005E49001E6
:1008A30004F090012B7403F0900100E0FF3395E016
:1008B300FE90012BE0FDC39FEE6480F87480985096
:1008C3003A74002DF582E43400F583E0FF900000D4
:1008D300E0FEEFB5061D90012BE02480F582E434A1
:1008E30000F583E0FF900080E0FEEFB50605E4909D
:1008F3000104F090012BE004F080AD1217919001F8
:1009030000E0FF3395E0FEEF24FDF526EE34FFF51E
:0A09130025AD27AF26AE25121A3DD0
:10091D000207BA900100E0FF3395E0FEEF24FDF5EC
:0A092D0026EE34FFF525538EEF226D
:1022D600FFFF020B024B029302BA0310037003DCEA
:1022E6000416049705260575062006E007AF0000CC
:0E1EC30002100000430128000000410127002A
:101C1300E490012BF090012BE025E024D6F582E43B
:101C23003422F583E493FE740193FBAA06E4F9F8E6
:101C3300FF7E367D6E7C01122197C3E49FFDE49EF7
:101C4300FC90012BE0FB25E02407F582E43401F549
:101C530083EDF0ECFFEB25E02408F582E43401F595
:101C630083EFF090012BE004F025E024D6F582E425
:0D1C73003422F5837401937002E49370989D
:011C80002241
:10228A00438E0443AF04D2AFD2CDE4F510F51190DA
:10229A000128E0FBA3E0FAA3E0F9900002E41201AE
:0722AA00D4538EEF021C1358
:10210D00300542900149E0FF25E02407F582E434D3
:10211D0001F583E0F5D7EF25E02408F582E43401DD
:10212D00F583E0F5D690014AE0FFB4FF0874FFF5A2
:10213D0010F511800D7E007C007D0A1201F68E10C7
:06214D008F11438E1022E9
:10233300300015E4900127F0F510F511A3EBF0A39D
:09234300EAF0A3E9F0438E102238
:101D5400000103070F0002010403060508090A072E
:101D64000C0D0E0B1011120F00001818101010108B
:101D74000000003C0008181000003018001018087B
:101D84000000183000080818000038080018101067
:101D94000000203800101018000008380018080847
:101DA400000038200000103800081808000038101F
:081DB4000010181000000000EF
:081ED100410160004101610FB5
:101F33001220C07C007D1312025D90015FEDF02042
:101F4300B00620B3037402F0E4FFEFFDC374039DF6
:101F5300FDE49400FC90015FE025E025E0246CF5AE
:101F630082E4341DF583E5822DF582E5833CF58318
:101F7300E493FE745B2FF582E43401F583EEF00FF6
:041F8300EFB404C6ED
:011F87002237
:101C8100EF6034E4FE745B2EF582E43401F583E009
:101C9100FF20E018900161E02E244BF582E434012D
:101CA100F583E0FDEFC313FFED5F60037F00220EBC
:101CB100EEB404D17F0122E4FE745B2EF582E4349C
:101CC10001F583E0FF20E718900161E02E244BF538
:101CD10082E43401F583E0FDEF25E0FFED5F600371
:0A1CE1007F00220EEEB404D17F0153
:011CEB0022D6
:0E1F880090012B7401F0A37401F0A3745BF0C0
:101F960030031FE4FF90012BE0FBA3E0FAA3E02F40
:101FA600F9E43AFA12017CC3131201C20FEFB4042A
:101FB600E422E4FF90012BE0FBA3E0FAA3E02FF973
:101FC600E43AFA12017C25E01201C20FEFB404E4F0
:011FD60022E8
:0605BA007B017A01792D9E
:1005C000900132EBF0A3EAF0A3E9F0900131EFF0F3
:1005D000D36480948050030206B6E4900136F09014
:1005E0000131E0FF900136E0FEC3EF6480F8EE6475
:1005F000809840030206B3E4900135F0900135E0A5
:10060000FFC36480948440030206AA900132E0FB99
:10061000A3E0FAA3E0F9EFFD3395E0FC8D82F583CA
:1006200012019530E7037F0022900132E0FBA3E046
:10063000FAA3E02DF9EA3CFA12017C25E01201C28E
:10064000900136E0FF3395E0FEEF2401FFE43EFE2B
:10065000900131E0FD3395E0FCEF6D7002EE6C70BF
:1006600040A3E0FBA3E0FAA3E0F9A3E0FF3395E0A9
:100670008F82F583120195FF900161E0FD3395E0D3
:10068000FC900135E0FB3395E0FAEB2DFDEA3CFCF4
:10069000744B2DF58274013CF583E05F60037F00AD
:1006A00022900135E004F00205FC900136E004F0F0
:1006B0000205DF7F0122900131E0C3648094804015
:1006C000030207ABE4900136F0900131E0F404FF3F
:1006D000900136E0FEC3EF6480F8EE64809840033A
:1006E0000207A8E4900135F0900135E0FFC3648073
:1006F0009484400302079F900132E0FBA3E0FAA339
:10070000E0F9EFFD3395E0FC8D82F5831201953021
:10071000E0037F0022900132E0FBA3E0FAA3E02D8A
:10072000F9EA3CFA12017CC3131201C2900131E0D4
:10073000FF3395E0FEC3E49FFFE49EFE900136E0A8
:10074000FD3395E0FCED2401FDE43CFCED6F70020F
:10075000EC6E7042900132E0FBA3E0FAA3E0F9A353
:10076000E0FF3395E08F82F583120195FF900161E0
:10077000E0FD3395E0FC900135E0FB3395E0FAEBCA
:100780002DFDEA3CFC744B2DF58274013CF583E0B1
:100790005F60037F0022900135E004F00206E890DC
:0D07A0000136E004F00206C97F01227F014E
:0107AD002229
:10093700782D7C017D017BFF7A1D79B87E007F04CD
:1009470012015690015FE0901D599390012CF0E43D
:1009570090012BF090012BE0FFFDC374039DFDE494
:100967009400FCA3E025E025E0246CF582E4341D27
:10097700F583E5822DF582E5833CF583E493FE74E8
:100987002D2FF582E43401F583EEF090012BE0047E
:10099700F0E0B404BF900160E0FFD364809480402E
:1009A7003D1205BAEF7003020AA190012CE09001F5
:1009B7005FF0E490012BF090012BE0FF242DF582EE
:1009C700E43401F583E0FE745B2FF582E43401F52E
:1009D70083EEF090012BE004F0E0B404DA229001FA
:1009E70060E0FFC364809480503D1205BAEF700346
:1009F700020AA190012CE090015FF0E490012BF036
:100A070090012BE0FF242DF582E43401F583E0FE0D
:100A1700745B2FF582E43401F583EEF090012BE04F
:070A270004F0E0B404DA2240
:100A2E00D203E490012BF090012BE0FFC39404500D
:100A3E002C900161E0FEEF2E244BF582E43401F59B
:100A4E0083E0FE742D2FF582E43401F583E05E60C1
:100A5E0004C203800890012BE004F080CA300333F7
:100A6E00E490012BF090012BE0FF242DF582E4346D
:100A7E0001F583E0FE745B2FF582E43401F583EE1D
:100A8E00F090012BE004F0E0B404DA90012CE09039
:030A9E00015FF005
:010AA1002232
:1014810090015CE0FF90015AE0FE5FFFA3E0FDEEFA
:101491005D4F60037FFF22900161E0FE70037F01D9
:1014A10022EEFB3395E0FA744A2BF58274013AF58A
:1014B10083E05D60037F0122744B2BF58274013A56
:1014C100F583E0FF90015CE0FEEF5E60037F0122A7
:1014D100900161E0FFC36480948F501DEF3395E06C
:1014E100FE744C2FF58274013EF583E0FF90015D9F
:1014F100E0FEEF5E60037F0122900161E0FFC364C3
:1015010080948E501DEF3395E0FE744D2FF582745B
:10151100013EF583E0FF90015EE0FEEF5E60037F38
:0515210001227F002201
:1019BD00E4FFFE744B2FF58274013EF583E0FD7458
:1019CD002A2FF8A6050FBF00010EEF64104E70E32D
:1019DD00900161E0FF3395E0FE900161E0F9FD3388
:1019ED0095E0FCED2404FDE43CFCC3EF9DEE9C5022
:1019FD0034C3EF9410EE94005024742A2FF8C000D5
:101A0D00E6FDE9FB3395E0FAC3EF9BFBEE9AFA7422
:101A1D005B2BF58274013AF583E04DD000F60FBFD4
:101A2D0000010E80B47B007A00792AAD2702103AAE
:10113100E490012CF090012BF090012BE0FFC3947F
:10114100104003021212744B2FF582E43401F5832F
:07115100E0F4600302120943
:1011580090012D7404F090012CE004F090012DE032
:06116800FF14F0EF6062CD
:10116E00E529248090012FF0E4352890012EF0A27D
:10117E000092059001497405F0A37403F012210D3D
:10118E0090012BE0FF244BF582E43401F583E0F46B
:10119E00FE744B2FF582E43401F583EEF0D390010B
:1011AE002FE0952990012EE0952840AA7B017A0127
:1011BE00794BAD2712103AAD27AF26AE25121A3D48
:0211CE0080DBC4
:1011D00090012BE0FFEFC3940F5028744C2FF58241
:1011E000E43401F583E0FE744B2FF582E43401F51D
:1011F00083EEF0744B2FF582E43401F583E0600355
:091200000F80D290012BE014F0E4
:1012090090012BE004F002113A90012CE0901D545A
:0A121900932526F526E43525F5257A
:0112230022A8
:101BA4007F9612234CEF14601C24FE602D14704E9B
:101BB400E4FF121C81EF6046C203121F889001608B
:101BC400E004F080397F01121C81EF6031D20312EE
:101BD4001F88900160E014F08024E58E20E4047FE7
:101BE4000180027F00A200E4335F24FF920590018C
:101BF400497402F0A37408F012210D12093720B6BB
:0E1C04000775230075241C227523017524F436
:011C120022AF
:1022B100E4FF7E1090014BE4F0A3DEFCE4F525F58C
:1022C10026F521F522F528F5297523017524F41247
:0422D1001F33D202E3
:0122D50022E6
:100E29001222B17BFF7A0C791412233320020302B8
:100E39000F39121BA4D3E5299524E52895235003DE
:100E4900020F2AE4F528F529121481EF64016003E1
:100E5900020F1A900161E0FFFD3395E0FC744B2D00
:100E6900F58274013CF583C083C082E0FE90015B8A
:100E7900E0FDEE4DD082D083F0C3EF6480948F50B3
:100E890025900161E0FF3395E0FE744C2FF58274E3
:100E9900013EF583C083C082E0FF90015CE0FEEF74
:100EA9004ED082D083F0900161E0FFC36480948EBC
:100EB9005021EF3395E0FE744D2FF58274013EF514
:100EC90083C083C082E0FF90015DE0FEEF4ED082D7
:100ED900D083F0900161E0FFC36480948D5021EFCD
:100EE9003395E0FE744E2FF58274013EF583C0837D
:100EF900C082E0FF90015EE0FEEF4ED082D083F029
:100F0900121131121F33E4900160F0A3740FF080C5
:100F190010121481BFFF04C2028006900161E0141F
:100F2900F01219BDAD27AF26AE25121A3D020E35B6
:040F3900538EEF22C2
:100BDC00080809080A080B080C080D080E08000084
:100BEC0007080608050804080308020801080000A5
:100BFC00010F010F030F010A010A03140000060F75
:100C0C00040F030F011E0000061C03120412051230
:100C1C00041203120214000102140414061C000135
:100C2C00051204160316000104160516061600011B
:100C3C00041602160002021C000C051E06190916E9
:100C4C000816061C0412061405120412031C0412C6
:100C5C00051C0614041402140001021900000A23D6
:100C6C000928082307280623052806230728082314
:100C7C000728062305280423032804230228081424
:100C8C000714081401140714051402140314011496
:100C9C0008140714061407140A140C140D140B145E
:100CAC000A1409140B140B140A1408140714061450
:100CBC000514041403140214041403140214011470
:100CCC00021403140414051402140514041403145C
:100CDC00061405140414051404140314021401144A
:100CEC000614061407140814071406140514041427
:100CFC00031402140614051406140514041400003D
:10182A00021667E493A3F8E493A34003F68001F257
:10183A0008DFF48029E493A3F85407240CC8C333BF
:10184A00C4540F4420C8834004F456800146F6DF8E
:10185A00E4800B0102040810204080901E7FE47E81
:10186A00019360BCA3FF543F30E509541FFEE49383
:10187A00A360010ECF54C025E060A840B8E493A34A
:10188A00FAE493A3F8E493A3C8C582C8CAC583CA75
:10189A00F0A3C8C582C8CAC583CADFE9DEE780BE2D
:011ED9000008
:10008600E709F608DFFA8046E709F208DFFA803E5C
:1000960088828C83E709F0A3DFFA8032E309F60849
:1000A600DFFA8078E309F208DFFA807088828C83B1
:1000B600E309F0A3DFFA806489828A83E0A3F60865
:1000C600DFFA805889828A83E0A3F208DFFA804C3F
:1000D60080D280FA80C680D4806980F28033801016
:1000E60080A680EA809A80A880DA80E280CA80337F
:1000F60089828A83ECFAE493A3C8C582C8CCC583F7
:10010600CCF0A3C8C582C8CCC583CCDFE9DEE780C6
:100116000D89828A83E493A3F608DFF9ECFAA9F045
:10012600EDFB2289828A83ECFAE0A3C8C582C8CC9B
:10013600C583CCF0A3C8C582C8CCC583CCDFEADEB4
:10014600E880DB89828A83E493A3F208DFF980CC16
:1001560088F0EF60010E4E60C388F0ED2402B4040F
:100166000050B9F582EB2402B4040050AF232345B6
:0601760082239000D67305
:10017C00BB010689828A83E0225002E722BBFE0281
:09018C00E32289828A83E49322B4
:10019500BB010CE58229F582E5833AF583E022501F
:1001A50006E92582F8E622BBFE06E92582F8E22269
:0D01B500E58229F582E5833AF583E4932283
:1001C200BB010689828A83F0225002F722BBFE011C
:0201D200F32216
:1001D400F8BB010DE58229F582E5833AF583E8F061
:1001E400225006E92582C8F622BBFE05E92582C80D
:0201F400F222F5
:1001F600EF8DF0A4A8F0CF8CF0A428CE8DF0A42E1D
:02020600FE22D6
:10020800BC000BBE0029EF8DF084FFADF022E4CCDA
:10021800F875F008EF2FFFEE33FEEC33FCEE9DECA3
:10022800984005FCEE9DFE0FD5F0E9E4CEFD22EDE9
:10023800F8F5F0EE8420D21CFEADF075F008EF2F33
:10024800FFED33FD4007985006D5F0F222C398FD24
:050258000FD5F0EA22C1
:10025D00C2D5EC30E709B2D5E4C39DFDE49CFCEEBC
:10026D0030E715B2D5E4C39FFFE49EFE120208C32A
:10027D00E49DFDE49CFC800312020830D507C3E425
:06028D009FFFE49EFE222B
:10219700C2D5E830E70FB2D5E4C39BFBE49AFAE473
:1021A70099F9E498F8EC30E717B2D51221CD12026D
:1021B700CFE4C39BFBE49AFAE499F9E498F8800327
:1021C7001202CF30D50DE4C39FFFE49EFEE49DFDD0
:0421D700E49CFC2266
:1020C0009001771203617810EC4D4E4F70047CA59F
:1020D0007DA5C3EC13FCED13FDEE13FEEF13FF50D3
:1020E00010EC64CCFCED644CFDEE644EFEEF64CE6F
:1020F000FFD8DF90017712036DEE547FFE2290012E
:0D21000077EEF0EFA3F0A374A5F0A3F0229A
:1002930075F008758200EF2FFFEE33FECD33CDCC22
:1002A30033CCC58233C5829BED9AEC99E5829840A5
:1002B3000CF582EE9BFEED9AFDEC99FC0FD5F0D682
:1002C300E4CEFBE4CDFAE4CCF9A88222B800C1B9AC
:1002D3000059BA002DEC8BF084CFCECDFCE5F0CBEA
:1002E300F97818EF2FFFEE33FEED33FDEC33FCEB23
:1002F30033FB10D703994004EB99FB0FD8E5E4F9DE
:10030300FA227818EF2FFFEE33FEED33FDEC33FCCA
:10031300C933C910D7059BE99A4007EC9BFCE99ABE
:10032300F90FD8E0E4C9FAE4CCFB2275F010EF2F03
:10033300FFEE33FEED33FDCC33CCC833C810D70703
:100343009BEC9AE899400AED9BFDEC9AFCE899F83E
:0E0353000FD5F0DAE4CDFBE4CCFAE4C8F922D1
:0C036100E0FCA3E0FDA3E0FEA3E0FF220F
:0C036D00ECF0A3EDF0A3EEF0A3EFF02203
:00000001FF
