:0300000002016793
:0C016700787FE4F6D8FD75813D0201AE02
:1004370000192AC88BC82A1900004262524A46424C
:1003F600100A0000000000000000000000000000DD
:0A0406000000010800010901C10017
:0801F3008B328A3389348D350B
:1001FB00E4F53A85353BE5352539FFE433FED3EF9E
:10020B009410EE6480948040047F108005E53525C2
:10021B0039FFE53BC39F5024AB36AA37A938853A43
:10022B0082758300120248AB32AA33A934853B8214
:0C023B00758300120275053A053B80BA7D
:010247002294
:060392008B1A8A1B891C76
:10039800E4FFAB1DAA1EA91F8F82758300120248B5
:1003A800AB1AAA1BA91C8F827583001202750FBF96
:0203B80010E053
:0103BA002220
:0603DA008B328A338934E6
:1003E000E4FFAB32AA33A9348F82758300E4120292
:0503F000750FBF10EDC8
:0103F50022E5
:10041100E4FF740A2FF8E6FE74212FF8A6060FBF39
:0204210010F0D9
:0104230022B6
:10042400438E805389F0758A40758CA2C28DD28C1C
:03043400D2A92228
:10035B007B007A00790A1203DA7536FF753704755C
:10036B0038377539087B007A00790A7D081201F35A
:10037B007536FF75370475383F7539087B007A0081
:07038B00790AE4FD0201F311
:1002DF00C2AF1204241203BB12044712035BD2AF46
:1002EF00E50924FE600F14601514601714601C24B8
:1002FF0004701B8016E508601575090380107509D9
:10030F0004800B300008750905800375090212047B
:03031F001180CD7D
:03000B0002029757
:10029700C0E0C0F0C083C082C0D075D000C000C02D
:1002A70001C002C003C004C005C006C00720B003D8
:1002B70075C760C2AF12000E120322D2AFD007D0AB
:1002C70006D005D004D003D002D001D000D0D0D0C2
:0802D70082D083D0F0D0E032A8
:07000300AE071FEE70FA22A8
:1003BB007F107821E4F608DFFC7594FFE4F5937564
:0E03CB0092FFF5917596FFF59575B4FFF5B3A9
:0103D9002201
:1000D900EFB4100040030201669000E9F828287384
:1000E90002011902011C02012102012602012B024F
:1000F900013002013502013A02013F0201440201C5
:100109004902014E02015302015802015D020162D6
:10011900D2C722C2C7D29122C291D29222C292D20E
:100129009022C290D28622C286D29322C293D287CB
:1001390022C287D28522C285D28222C282D281225C
:10014900C281D28322C283D28022C280D2A722C294
:0E015900A7D28422C284D2C522C2C5D2A62259
:10000E00E4FD74212DF8E6F9AF051200D97C01EC60
:10001E0014B4080040030200B990003575F003A433
:10002E00C58325F0C5837302004D02005902006797
:10003E0002007502008302009102009F0200ADE9EA
:10004E0030E004C2C68064D2C68060D2C6E930E019
:10005E0004C2C18056D2C18052D2C1E930E004C27E
:10006E00A28048D2A28044D2A2E930E004C2C3806A
:10007E003AD2C38036D2C3E930E004C2A1802CD27A
:10008E00A18028D2A1E930E004C2C4801ED2C4806F
:10009E001AD2C4E930E004C2A08010D2A0800CD2E3
:1000AE00A0E930E004C2A48002D2A47F141200039F
:1000BE00E9C313F90CEC6409600302001DD2A40D10
:0A00CE00ED64106003020010C2A6EA
:0100D8002205
:0C04470053B23243B1CDE4F53CF53D2248
:1003220020B705753C05802420B205753C01801C70
:1003320020B604A2B6800C20B004A2B0800520B37F
:1003420008A2B3E433F53C8003E4F53DE53CB53D5A
:0903520004433C8022853C3D225D
:05045300AF3CE4F53CA4
:010458002281
:100173000202DFE493A3F8E493A34003F68001F2C1
:1001830008DFF48029E493A3F85407240CC8C3338D
:10019300C4540F4420C8834004F456800146F6DF5C
:1001A300E4800B01020408102040809003F6E47EF3
:1001B300019360BCA3FF543F30E509541FFEE49351
:1001C300A360010ECF54C025E060A840B8E493A318
:1001D300FAE493A3F8E493A3C8C582C8CAC583CA43
:1001E300F0A3C8C582C8CAC583CADFE9DEE780BEFB
:0104100000EB
:10024800BB010CE58229F582E5833AF583E022506B
:1002580006E92582F8E622BBFE06E92582F8E222B5
:0D026800E58229F582E5833AF583E49322CF
:10027500F8BB010DE58229F582E5833AF583E8F0BF
:10028500225006E92582C8F622BBFE05E92582C86B
:02029500F22253
:00000001FF
